{
  "address": "0x5FbDB2315678afecb367f032d93F642f64180aa3",
  "abi": [
    {
      "inputs": [],
      "stateMutability": "nonpayable",
      "type": "constructor"
    },
    {
      "anonymous": false,
      "inputs": [
        {
          "indexed": false,
          "internalType": "address",
          "name": "sender",
          "type": "address"
        },
        {
          "indexed": false,
          "internalType": "address",
          "name": "receiver",
          "type": "address"
        },
        {
          "indexed": false,
          "internalType": "uint256",
          "name": "amount",
          "type": "uint256"
        },
        {
          "indexed": false,
          "internalType": "string",
          "name": "message",
          "type": "string"
        },
        {
          "indexed": false,
          "internalType": "uint256",
          "name": "timestamp",
          "type": "uint256"
        },
        {
          "indexed": false,
          "internalType": "string",
          "name": "keyword",
          "type": "string"
        }
      ],
      "name": "Transfer",
      "type": "event"
    },
    {
      "inputs": [
        {
          "internalType": "address payable",
          "name": "receiver",
          "type": "address"
        },
        {
          "internalType": "uint256",
          "name": "amount",
          "type": "uint256"
        },
        {
          "internalType": "string",
          "name": "keyword",
          "type": "string"
        },
        {
          "internalType": "string",
          "name": "message",
          "type": "string"
        }
      ],
      "name": "addToBlockChain",
      "outputs": [],
      "stateMutability": "nonpayable",
      "type": "function"
    },
    {
      "inputs": [],
      "name": "getAllTransactions",
      "outputs": [
        {
          "components": [
            {
              "internalType": "address",
              "name": "sender",
              "type": "address"
            },
            {
              "internalType": "address",
              "name": "receiver",
              "type": "address"
            },
            {
              "internalType": "uint256",
              "name": "amount",
              "type": "uint256"
            },
            {
              "internalType": "string",
              "name": "keyword",
              "type": "string"
            },
            {
              "internalType": "string",
              "name": "message",
              "type": "string"
            },
            {
              "internalType": "uint256",
              "name": "timestamp",
              "type": "uint256"
            }
          ],
          "internalType": "struct Transactions.TransferStruct[]",
          "name": "",
          "type": "tuple[]"
        }
      ],
      "stateMutability": "view",
      "type": "function"
    },
    {
      "inputs": [],
      "name": "getTransactionCount",
      "outputs": [
        {
          "internalType": "uint256",
          "name": "",
          "type": "uint256"
        }
      ],
      "stateMutability": "view",
      "type": "function"
    }
  ],
  "transactionHash": "0xe0cfaa3e8d0ceaf7cfb6f4f1d6179325c51d13122c6c5b45974d999da845e63b",
  "args": [],
  "numDeployments": 1,
  "solcInputHash": "90907d6c76e45a36f7f6a0528b3358ac",
  "bytecode": "0x608060405234801561001057600080fd5b50610e20806100206000396000f3fe608060405234801561001057600080fd5b50600436106100415760003560e01c806327506f53146100465780632e7700f014610064578063b2da096014610082575b600080fd5b61004e61009e565b60405161005b91906106da565b60405180910390f35b61006c6102e1565b604051610079919061070b565b60405180910390f35b61009c600480360381019061009791906108d9565b6102eb565b005b60606000805480602002602001604051908101604052809291908181526020016000905b828210156102d857838290600052602060002090600602016040518060c00160405290816000820160009054906101000a900473ffffffffffffffffffffffffffffffffffffffff1673ffffffffffffffffffffffffffffffffffffffff1673ffffffffffffffffffffffffffffffffffffffff1681526020016001820160009054906101000a900473ffffffffffffffffffffffffffffffffffffffff1673ffffffffffffffffffffffffffffffffffffffff1673ffffffffffffffffffffffffffffffffffffffff168152602001600282015481526020016003820180546101ab906109a7565b80601f01602080910402602001604051908101604052809291908181526020018280546101d7906109a7565b80156102245780601f106101f957610100808354040283529160200191610224565b820191906000526020600020905b81548152906001019060200180831161020757829003601f168201915b5050505050815260200160048201805461023d906109a7565b80601f0160208091040260200160405190810160405280929190818152602001828054610269906109a7565b80156102b65780601f1061028b576101008083540402835291602001916102b6565b820191906000526020600020905b81548152906001019060200180831161029957829003601f168201915b50505050508152602001600582015481525050815260200190600101906100c2565b50505050905090565b6000600154905090565b600160008154809291906102fe90610a07565b919050555060006040518060c001604052803373ffffffffffffffffffffffffffffffffffffffff1681526020018673ffffffffffffffffffffffffffffffffffffffff16815260200185815260200184815260200183815260200142815250908060018154018082558091505060019003906000526020600020906006020160009091909190915060008201518160000160006101000a81548173ffffffffffffffffffffffffffffffffffffffff021916908373ffffffffffffffffffffffffffffffffffffffff16021790555060208201518160010160006101000a81548173ffffffffffffffffffffffffffffffffffffffff021916908373ffffffffffffffffffffffffffffffffffffffff1602179055506040820151816002015560608201518160030190816104349190610bfb565b50608082015181600401908161044a9190610bfb565b5060a0820151816005015550507f416cfa4330a4565f45c2fd2dd4826a83a37443aba2ce6f79477c7355afac35fa33858584428760405161049096959493929190610d7b565b60405180910390a150505050565b600081519050919050565b600082825260208201905092915050565b6000819050602082019050919050565b600073ffffffffffffffffffffffffffffffffffffffff82169050919050565b60006104f5826104ca565b9050919050565b610505816104ea565b82525050565b6000819050919050565b61051e8161050b565b82525050565b600081519050919050565b600082825260208201905092915050565b60005b8381101561055e578082015181840152602081019050610543565b60008484015250505050565b6000601f19601f8301169050919050565b600061058682610524565b610590818561052f565b93506105a0818560208601610540565b6105a98161056a565b840191505092915050565b600060c0830160008301516105cc60008601826104fc565b5060208301516105df60208601826104fc565b5060408301516105f26040860182610515565b506060830151848203606086015261060a828261057b565b91505060808301518482036080860152610624828261057b565b91505060a083015161063960a0860182610515565b508091505092915050565b600061065083836105b4565b905092915050565b6000602082019050919050565b60006106708261049e565b61067a81856104a9565b93508360208202850161068c856104ba565b8060005b858110156106c857848403895281516106a98582610644565b94506106b483610658565b925060208a01995050600181019050610690565b50829750879550505050505092915050565b600060208201905081810360008301526106f48184610665565b905092915050565b6107058161050b565b82525050565b600060208201905061072060008301846106fc565b92915050565b6000604051905090565b600080fd5b600080fd5b6000610745826104ca565b9050919050565b6107558161073a565b811461076057600080fd5b50565b6000813590506107728161074c565b92915050565b6107818161050b565b811461078c57600080fd5b50565b60008135905061079e81610778565b92915050565b600080fd5b600080fd5b7f4e487b7100000000000000000000000000000000000000000000000000000000600052604160045260246000fd5b6107e68261056a565b810181811067ffffffffffffffff82111715610805576108046107ae565b5b80604052505050565b6000610818610726565b905061082482826107dd565b919050565b600067ffffffffffffffff821115610844576108436107ae565b5b61084d8261056a565b9050602081019050919050565b82818337600083830152505050565b600061087c61087784610829565b61080e565b905082815260208101848484011115610898576108976107a9565b5b6108a384828561085a565b509392505050565b600082601f8301126108c0576108bf6107a4565b5b81356108d0848260208601610869565b91505092915050565b600080600080608085870312156108f3576108f2610730565b5b600061090187828801610763565b94505060206109128782880161078f565b935050604085013567ffffffffffffffff81111561093357610932610735565b5b61093f878288016108ab565b925050606085013567ffffffffffffffff8111156109605761095f610735565b5b61096c878288016108ab565b91505092959194509250565b7f4e487b7100000000000000000000000000000000000000000000000000000000600052602260045260246000fd5b600060028204905060018216806109bf57607f821691505b6020821081036109d2576109d1610978565b5b50919050565b7f4e487b7100000000000000000000000000000000000000000000000000000000600052601160045260246000fd5b6000610a128261050b565b91507fffffffffffffffffffffffffffffffffffffffffffffffffffffffffffffffff8203610a4457610a436109d8565b5b600182019050919050565b60008190508160005260206000209050919050565b60006020601f8301049050919050565b600082821b905092915050565b600060088302610ab17fffffffffffffffffffffffffffffffffffffffffffffffffffffffffffffffff82610a74565b610abb8683610a74565b95508019841693508086168417925050509392505050565b6000819050919050565b6000610af8610af3610aee8461050b565b610ad3565b61050b565b9050919050565b6000819050919050565b610b1283610add565b610b26610b1e82610aff565b848454610a81565b825550505050565b600090565b610b3b610b2e565b610b46818484610b09565b505050565b5b81811015610b6a57610b5f600082610b33565b600181019050610b4c565b5050565b601f821115610baf57610b8081610a4f565b610b8984610a64565b81016020851015610b98578190505b610bac610ba485610a64565b830182610b4b565b50505b505050565b600082821c905092915050565b6000610bd260001984600802610bb4565b1980831691505092915050565b6000610beb8383610bc1565b9150826002028217905092915050565b610c0482610524565b67ffffffffffffffff811115610c1d57610c1c6107ae565b5b610c2782546109a7565b610c32828285610b6e565b600060209050601f831160018114610c655760008415610c53578287015190505b610c5d8582610bdf565b865550610cc5565b601f198416610c7386610a4f565b60005b82811015610c9b57848901518255600182019150602085019450602081019050610c76565b86831015610cb85784890151610cb4601f891682610bc1565b8355505b6001600288020188555050505b505050505050565b610cd6816104ea565b82525050565b6000610cf7610cf2610ced846104ca565b610ad3565b6104ca565b9050919050565b6000610d0982610cdc565b9050919050565b6000610d1b82610cfe565b9050919050565b610d2b81610d10565b82525050565b600082825260208201905092915050565b6000610d4d82610524565b610d578185610d31565b9350610d67818560208601610540565b610d708161056a565b840191505092915050565b600060c082019050610d906000830189610ccd565b610d9d6020830188610d22565b610daa60408301876106fc565b8181036060830152610dbc8186610d42565b9050610dcb60808301856106fc565b81810360a0830152610ddd8184610d42565b905097965050505050505056fea264697066735822122027099f9747d79599f242de4ab41e0b627a0af7a75d4f9b620178df31170d372764736f6c63430008110033",
  "devdoc": {
    "kind": "dev",
    "methods": {},
    "version": 1
  },
  "userdoc": {
    "kind": "user",
    "methods": {},
    "version": 1
  },
  "storageLayout": {
    "storage": [
      {
        "astId": 18,
        "contract": "contracts/Transactions.sol:Transactions",
        "label": "transactions",
        "offset": 0,
        "slot": "0",
        "type": "t_array(t_struct(TransferStruct)14_storage)dyn_storage"
      },
      {
        "astId": 20,
        "contract": "contracts/Transactions.sol:Transactions",
        "label": "transferCount",
        "offset": 0,
        "slot": "1",
        "type": "t_uint256"
      }
    ],
    "types": {
      "t_address": {
        "encoding": "inplace",
        "label": "address",
        "numberOfBytes": "20"
      },
      "t_array(t_struct(TransferStruct)14_storage)dyn_storage": {
        "base": "t_struct(TransferStruct)14_storage",
        "encoding": "dynamic_array",
        "label": "struct Transactions.TransferStruct[]",
        "numberOfBytes": "32"
      },
      "t_string_storage": {
        "encoding": "bytes",
        "label": "string",
        "numberOfBytes": "32"
      },
      "t_struct(TransferStruct)14_storage": {
        "encoding": "inplace",
        "label": "struct Transactions.TransferStruct",
        "members": [
          {
            "astId": 3,
            "contract": "contracts/Transactions.sol:Transactions",
            "label": "sender",
            "offset": 0,
            "slot": "0",
            "type": "t_address"
          },
          {
            "astId": 5,
            "contract": "contracts/Transactions.sol:Transactions",
            "label": "receiver",
            "offset": 0,
            "slot": "1",
            "type": "t_address"
          },
          {
            "astId": 7,
            "contract": "contracts/Transactions.sol:Transactions",
            "label": "amount",
            "offset": 0,
            "slot": "2",
            "type": "t_uint256"
          },
          {
            "astId": 9,
            "contract": "contracts/Transactions.sol:Transactions",
            "label": "keyword",
            "offset": 0,
            "slot": "3",
            "type": "t_string_storage"
          },
          {
            "astId": 11,
            "contract": "contracts/Transactions.sol:Transactions",
            "label": "message",
            "offset": 0,
            "slot": "4",
            "type": "t_string_storage"
          },
          {
            "astId": 13,
            "contract": "contracts/Transactions.sol:Transactions",
            "label": "timestamp",
            "offset": 0,
            "slot": "5",
            "type": "t_uint256"
          }
        ],
        "numberOfBytes": "192"
      },
      "t_uint256": {
        "encoding": "inplace",
        "label": "uint256",
        "numberOfBytes": "32"
      }
    }
  }
}